:100000000C943D000C945A000C945A000C945A0025
:100010000C945A000C945A000C945A000C945A00F8
:100020000C945A000C945A000C945A000C945A00E8
:100030000C945A000C9420010C945A000C945A0011
:100040000C945A000C945A000C945A000C945A00C8
:100050000C945A000C9471000C945A000C945A00A1
:100060000C945A000C945A00A404470555056305E6
:1000700071057F05820590059E0511241FBECFEFF7
:10008000D8E0DEBFCDBF11E0A0E0B1E0E4EBFEE0E0
:1000900002C005900D92A231B107D9F721E0A2E18B
:1000A000B1E001C01D92A732B207E1F70E948304BC
:1000B0000C9458070C940000EAE7F0E0808184601B
:1000C0008083ACE7B0E08C9180648C938081886001
:1000D000808380818068808378948081806480833D
:1000E00008951F920F920FB60F9211242F938F93A2
:1000F0009F93EF93FF93809178002091790090E097
:10010000922B20917C002334D9F028F4203441F044
:10011000213471F02CC02434D9F0253409F127C0E2
:10012000909326018093250181E480937C001FC079
:10013000909324018093230183E480937C0017C073
:100140009093200180931F0184E480937C000FC072
:1001500090931E0180931D0185E480937C0007C06D
:10016000909322018093210180E480937C00EAE750
:10017000F0E080818064808380917C008D3211F476
:1001800080818083FF91EF919F918F912F910F90AC
:100190000FBE0F901F90189584B1866084B98FEFC1
:1001A0009FEF909387008093860020E030E048EC3A
:1001B00052E46091040170910501809106019091D3
:1001C00007010E94CB0520E03FEF4FE757E40E9474
:1001D000BD060E943D06709389006093880020E070
:1001E00030E048EC52E4609100017091010180918F
:1001F0000201909103010E94CB0520E03FEF4FE701
:1002000057E40E94BD060E943D0670938B006093E8
:100210008A007894E0E8F0E08081806A80838081C1
:1002200082608083E1E8F0E0808188618083AFE6CE
:10023000B0E08C9181608C9380818160808308958F
:100240001F920F920FB60F9211242F933F934F934B
:100250005F936F937F938F939F93AF93BF93EF932E
:10026000FF9320E030E04FE753E460910401709188
:10027000050180910601909107010E94CB0520E0C5
:100280003FEF4FE757E40E94BD060E943D06709382
:1002900089006093880020E030E04FE753E46091EC
:1002A00000017091010180910201909103010E946F
:1002B000CB0520E03FEF4FE757E40E94BD060E94C8
:1002C0003D0670938B0060938A00FF91EF91BF9180
:1002D000AF919F918F917F916F915F914F913F91DE
:1002E0002F910F900FBE0F901F901895CF93DF9313
:1002F0000E945C00EDE1F1E0C8E0D1E0A3E1B1E0F3
:1003000047E251E061E070E021913191899199914A
:100310008217930724F411967C936E9303C0119671
:100320001C921E921296E417F50771F7DF91CF9198
:1003300008954F925F926F927F928F929F92AF92A9
:10034000BF92CF92DF92EF92FF920F931F93CF93C2
:10035000DF93CDB7DEB7C456D1090FB6F894DEBF30
:100360000FBECDBF0F2EF8E06F2EF1E07F2EF02DE7
:100370006E0125E6C20ED11C0F2EFDE1EF2EF1E03D
:10038000FF2EF02D0F2EFAE04F2E512CF02D8CC0A9
:100390000E945C00D7018D919C911197F50191838A
:1003A000808312968D919C911397938382831496E8
:1003B0008D919C9115979583848316968D919C9130
:1003C00017979783868318968D919C91199791879B
:1003D0008087FFEF20E782E0F15020408040E1F786
:1003E00000C000009AE0A90EB11CCA14DB0481F61B
:1003F00080E090E0812C912CA12CB12CE0E0F0E089
:1004000020E030E0D8014D915C911197840F951F49
:1004100012964D915C911397840E951E14964D91F2
:100420005C911597A40EB51E16964D915C91179789
:10043000E40FF51F18964D915C911997240F351F05
:10044000065F1F4F0C151D05E9F6B2010E942A0731
:1004500069577F4FD3016D937C93C401B2010E9411
:100460002A0769577F4FD30113967C936E93129797
:10047000C501B2010E942A076C597F4FD30115961E
:100480007C936E931497CF01B2010E942A0769579B
:100490007F4FF30177836683C901B2010E942A0767
:1004A00069577F4F71876087D3018D919C91893502
:1004B000924034F4F30182819381893592402CF08B
:1004C0008E010F5F1F4F580163CFD30114968D919A
:1004D0009C911597893592409CF7F301868197810D
:1004E000893592406CF7D30118968D919C9119979C
:1004F000893592402CF7249A2C9AEFEFF3E224EFFF
:10050000E150F0402040E1F700C00000CC59DF4F3F
:100510000FB6F894DEBF0FBECDBFDF91CF911F9114
:100520000F91FF90EF90DF90CF90BF90AF909F9092
:100530008F907F906F905F904F90089580911901F8
:1005400090911A01009709F063C080911501909174
:10055000160181309105B9F52091130130911401F4
:10056000232B09F05BC020911B0130911C01211548
:10057000310509F053C040911701509118014230E4
:10058000510508F04BC039C020911501309116017A
:10059000232B09F043C02091130130911401232B28
:1005A000E9F520911B0130911C01232BB9F531E0B5
:1005B00020E08091170190911801029708F430E033
:1005C000832F922F0895892BD1F48091130190915C
:1005D0001401892BB9F480911B0190911C01892B86
:1005E000A1F431E020E0809117019091180101976A
:1005F00009F430E0832F922F0895C901089581E016
:1006000090E0089581E090E0089581E090E0089501
:100610008130910509F4B8CF81E090E0089500970A
:1006200041F0EFE9FFE03197F1F700C000000197DA
:10063000C1F708955E9A5C9A0E940F035E985C98D9
:1006400008955F9A5D9A0E940F035F985D980895E0
:10065000AF92BF92CF92DF92EF92FF920F931F93D0
:10066000CF93DF93CDB7DEB7CE56D1090FB6F8944E
:10067000DEBF0FBECDBF0E9476015E0165E6A60E0D
:10068000B11CE3E1F1E080819181D5018D939C93D0
:1006900082819381A9969FAF8EAFA997848195811E
:1006A000AB969FAF8EAFAB9786819781AD969FAF8C
:1006B0008EAFAD9780859185AF969FAF8EAFAF9788
:1006C0008EEB90E00E942103FE0131966F018F01B5
:1006D0000F2EF3E1EF2EF1E0FF2EF02D0E947601B8
:1006E000D7018D919C911197F80191838083129687
:1006F0008D919C9113979383828314968D919C91F5
:1007000015979583848316968D919C91179797835F
:10071000868318968D919C9119979187808788E29E
:1007200090E00E941A03065F1F4FA016B106B1F6B3
:10073000BE0161597F4FF60180E090E020E030E09B
:1007400040815181840F951F40855185240F351FAD
:100750003A966E177F07A1F7FE01F39640E050E04E
:10076000D601D6966D917C91D797460F571FBAE068
:10077000CB0ED11CCE16DF0699F718161906C4F554
:1007800012161306C4F54230510584F0069754F052
:10079000263031053CF04330510524F088E0809349
:1007A00012012BC081E08093120127C082E0809368
:1007B000120123C01216130604F54230510584F4C9
:1007C00083E08093120119C018161906B4F4232B84
:1007D000A1F44230510544F484E0809312010DC02D
:1007E00085E08093120109C086E08093120105C064
:1007F000892B01F302C0009739F7C259DF4F0FB6BA
:10080000F894DEBF0FBECDBFDF91CF911F910F9146
:10081000FF90EF90DF90CF90BF90AF9008955C9ADB
:100820005F9A0E940F035C985F9808958CE291E0B4
:100830000E940F042FEF81EE94E021508040904001
:10084000E1F700C0000086E990E00E941A0388ECFE
:1008500090E00E940F040E94760188E290E00E94DE
:100860000F040E949E02892BB1F70895CF93DF9366
:1008700080E991E00E940F04C1E0D0E00AC0219617
:10088000CD33D10534F08AEF90E00E942103C0E01F
:10089000D0E00E9476018DE290E00E940F040E9459
:1008A0009E02892B61F7DF91CF9108955E9A5D9A40
:1008B0000E940F035E985D9808958CE291E00E947B
:1008C000560484E690E00E940F0386E990E00E94BF
:1008D0001A0388EC90E00E9456040E94760188E298
:1008E00090E00E9456040E949E02892BB1F7089561
:1008F0009093C5008093C40088E08093C1008EE08F
:100900008093C20008958AB1806F8AB984B18360F0
:1009100084B987E690E00E9478040E9499010E94C1
:10092000CC0000E010E0C3E1D1E00F2EF7E0FF2E95
:10093000F02D8091120190E0FC0189309105E0F7E3
:10094000EC5CFF4F0C943E070E9476018A819B81EC
:10095000009709F05AC088819981009709F005C174
:100960008C819D81019709F004C18E819F81892B23
:1009700009F0FFC088859985892B09F0FAC08EE1BE
:1009800090E00E941A0300E010E0D3CF8E819F8197
:10099000892BB1F488859985892B91F40F5F1F4FBE
:1009A0000531110544F082EC91E00E942103F092A0
:1009B000120100E010E08EE190E00E941A03B9CF2E
:1009C0008C819D81019709F0DAC08E819F8101970A
:1009D00009F0D5C088859985892B09F0D0C08EE1B2
:1009E00090E00E940F0400E010E0A3CF8E819F8171
:1009F0000197B1F588859985892B91F58EE190E075
:100A00000E940F0400E010E094CF019749F588811F
:100A10009981892B29F58C819D81019709F0B5C0B9
:100A20008E819F81892B09F0B0C088859985892B9B
:100A300009F0ABC08EE190E00E94560400E010E0A7
:100A400078CF8E819F81892B59F488859985892B50
:100A500039F48EE190E00E94560400E010E069CF86
:100A60002FEF85EA9EE0215080409040E1F700C0E2
:100A700000000E9428032FEF85EA9EE0215080406D
:100A80009040E1F700C0000000E010E052CF0E946B
:100A90005D04109212012FEF85EA9EE02150804004
:100AA0009040E1F700C0000044CF0E945D04109226
:100AB00012012FEF85EA9EE0215080409040E1F73F
:100AC00000C0000036CF0E941604109212012FEFD2
:100AD00085EA9EE0215080409040E1F700C0000090
:100AE00028CF0E945D04109212012FEF85EA9EE04C
:100AF000215080409040E1F700C000001ACF1092D2
:100B0000120117CF0E945D04109212012FEF85EAA7
:100B10009EE0215080409040E1F700C0000009CFE6
:100B20000E943604109212012FEF85EA9EE02150B8
:100B300080409040E1F700C00000FBCE109212010F
:100B40002C9A2FEF83EC99E0215080409040E1F700
:100B500000C000002C982FEF83EC99E021508040DA
:100B60009040E1F700C00000EBCF892B09F428CFBB
:100B700077CF8C819D81892B09F408CF21CF8C817F
:100B80009D81892B09F432CF6BCF8C819D81892B7C
:100B900009F457CF65CF0E94DF050C9483060E94AD
:100BA0007C0658F00E94750640F029F45F3F29F05A
:100BB0000C946C0651110C94B7060C9472060E94AA
:100BC000940668F39923B1F3552391F3951B550BC4
:100BD000BB27AA2762177307840738F09F5F5F4F10
:100BE000220F331F441FAA1FA9F335D00E2E3AF04F
:100BF000E0E832D091505040E695001CCAF72BD067
:100C0000FE2F29D0660F771F881FBB1F26173707B7
:100C10004807AB07B0E809F0BB0B802DBF01FF27E9
:100C200093585F4F3AF09E3F510578F00C946C0654
:100C30000C94B7065F3FE4F3983ED4F3869577951E
:100C40006795B795F7959F5FC9F7880F911D9695A2
:100C5000879597F90895E1E0660F771F881FBB1FFE
:100C6000621773078407BA0720F0621B730B840BAB
:100C7000BA0BEE1F88F7E09508950E949C0688F055
:100C80009F5798F0B92F9927B751B0F0E1F0660F50
:100C9000771F881F991F1AF0BA95C9F714C0B13091
:100CA00091F00E94B606B1E008950C94B606672F45
:100CB000782F8827B85F39F0B93FCCF386957795C0
:100CC0006795B395D9F73EF49095809570956195A9
:100CD0007F4F8F4F9F4F089597F99F6780E870E08F
:100CE00060E008959FEF80EC089500240A941616A2
:100CF000170618060906089500240A94121613060A
:100D0000140605060895092E0394000C11F4882397
:100D100052F0BB0F40F4BF2B11F460FF04C06F5FB3
:100D20007F4F8F4F9F4F089557FD9058440F551F89
:100D300059F05F3F71F04795880F97FB991F61F05D
:100D40009F3F79F087950895121613061406551FD4
:100D5000F2CF4695F1DF08C0161617061806991F40
:100D6000F1CF86957105610508940895E894BB2735
:100D700066277727CB0197F908950E94D0060C9437
:100D800083060E94750638F00E947C0620F09523A9
:100D900011F00C946C060C94720611240C94B70696
:100DA0000E94940670F3959FC1F3950F50E0551F74
:100DB000629FF001729FBB27F00DB11D639FAA27B0
:100DC000F00DB11DAA1F649F6627B00DA11D661FFF
:100DD000829F2227B00DA11D621F739FB00DA11D20
:100DE000621F839FA00D611D221F749F3327A00DDA
:100DF000611D231F849F600D211D822F762F6A2F76
:100E000011249F5750409AF0F1F088234AF0EE0FDA
:100E1000FF1FBB1F661F771F881F91505040A9F707
:100E20009E3F510580F00C946C060C94B7065F3F12
:100E3000E4F3983ED4F3869577956795B795F79543
:100E4000E7959F5FC1F7FE2B880F911D96958795BB
:100E500097F9089597FB072E16F4009407D077FDB5
:100E600009D00E94440707FC05D03EF49095819577
:100E70009F4F0895709561957F4F0895EE0FFF1F66
:100E80000590F491E02D0994AA1BBB1B51E107C00A
:100E9000AA1FBB1FA617B70710F0A61BB70B881F0A
:100EA000991F5A95A9F780959095BC01CD01089599
:040EB000F894FFCFE4
:100EB4000000144300001B43FF03FF03FF03FF0371
:020EC400FF032A
:00000001FF
