S02000004D617A655F736F6C7665725F66726F6D5F61726475696E6F2E7372656319
S11300000C9434000C9451000C9451000C94510045
S11300100C9451000C9451000C9451000C94510018
S11300200C9451000C9451000C9451000C94510008
S11300300C9451000C9417010C9451000C94510031
S11300400C9451000C9451000C9451000C945100E8
S11300500C9451000C9453000C9451000C945100D6
S11300600C9451000C94510011241FBECFEFD8E022
S1130070DEBFCDBF11E0A0E0B1E0E8E9F8E002C0E6
S113008005900D92A231B107D9F721E0A2E1B1E0C8
S113009001C01D92AC31B207E1F70E94A4020C9496
S11300A04A040C9400001F920F920FB60F92112471
S11300B02F938F939F93EF93FF93809178002091D8
S11300C0790090E0922B20917C002334D9F028F41D
S11300D0203441F0213471F02CC02434D9F025347B
S11300E009F127C090931B0180931A0181E4809346
S11300F07C001FC0909319018093180183E48093BE
S11301007C0017C0909315018093140184E48093BC
S11301107C000FC0909313018093120185E48093B7
S11301207C0007C0909317018093160180E48093AC
S11301307C00EAE7F0E080818064808380917C0029
S11301408D3211F480818083FF91EF919F918F9183
S11301502F910F900FBE0F901F901895EAE7F0E0D3
S1130160808184608083ACE7B0E08C9180648C9360
S11301708081886080838081806880837894808196
S113018080648083089584B1866084B98FEF9FEF83
S1130190909387008093860020E030E048EC52E49E
S11301A0609104017091050180910601909107010D
S11301B00E94C30220E03FEF4FE757E40E94B503DB
S11301C00E943503709389006093880020E030E03A
S11301D048EC52E4609100017091010180910201A8
S11301E0909103010E94C30220E03FEF4FE757E4E0
S11301F00E94B5030E94350370938B0060938A00BC
S11302007894E0E8F0E08081806A80838081826075
S11302108083E1E8F0E0808188618083AFE6B0E02C
S11302208C9181608C9380818160808308951F927A
S11302300F920FB60F9211242F933F934F935F9316
S11302406F937F938F939F93AF93BF93EF93FF939A
S113025020E030E04FE753E4609104017091050120
S113026080910601909107010E94C30220E03FEFB4
S11302704FE757E40E94B5030E9435037093890049
S11302806093880020E030E04FE753E46091000180
S11302907091010180910201909103010E94C302B7
S11302A020E03FEF4FE757E40E94B5030E94350377
S11302B070938B0060938A00FF91EF91BF91AF918F
S11302C09F918F917F916F915F914F913F912F916A
S11302D00F900FBE0F901F9018954F925F926F92E0
S11302E07F928F929F92AF92BF92CF92DF92EF92C2
S11302F0FF920F931F93CF93DF93CDB7DEB7C4560E
S1130300D1090FB6F894DEBF0FBECDBF0F2EF8E0B3
S11303106F2EF1E07F2EF02D6E0125E6C20ED11C6A
S11303200F2EF2E1EF2EF1E0FF2EF02D0F2EFAE06A
S11303304F2E512CF02D8CC00E94AE00D7018D9110
S11303409C911197F5019183808312968D919C91D4
S113035013979383828314968D919C91159795831B
S1130360848316968D919C9117979783868318960C
S11303708D919C91199791878087FFEF20E782E008
S1130380F15020408040E1F700C000009AE0A90E3F
S1130390B11CCA14DB0481F680E090E0812C912C1E
S11303A0A12CB12CE0E0F0E020E030E0D8014D9148
S11303B05C911197840F951F12964D915C91139740
S11303C0840E951E14964D915C911597A40EB51E3E
S11303D016964D915C911797E40FF51F18964D9161
S11303E05C911997240F351F065F1F4F0C151D05CF
S11303F0E9F6B2010E94220469577F4FD3016D933D
S11304007C93C401B2010E94220469577F4FD30137
S113041013967C936E931297C501B2010E94220435
S11304206C597F4FD30115967C936E931497CF012B
S1130430B2010E94220469577F4FF30177836683D8
S1130440C901B2010E94220469577F4F71876087F6
S1130450D3018D919C918935924034F4F3018281CA
S11304609381893592402CF08E010F5F1F4F580104
S113047063CFD30114968D919C9115978935924041
S11304809CF7F30186819781893592406CF7D301FB
S113049018968D919C911997893592402CF7249A3E
S11304A02C9AEFEFF7EA21E6E150F0402040E1F723
S11304B000C00000CC59DF4F0FB6F894DEBF0FBE6A
S11304C0CDBFDF91CF911F910F91FF90EF90DF90FF
S11304D0CF90BF90AF909F908F907F906F905F90E0
S11304E04F900895009741F0EFE9FFE03197F1F75D
S11304F000C000000197C1F708955E9A5C9A0E94BB
S113050072025E985C9808955F9A5D9A0E947202E6
S11305105F985D9808955C9A5F9A0E9472025C9855
S11305205F9808955E9A5D9A0E9472025E985D9843
S113053008959093C5008093C40088E08093C1001F
S11305408EE08093C20008958AB1806F8AB984B125
S1130550836084B987E690E00E9499020E946D014D
S11305600E94C30088EC90E00E947D0288EC90E039
S11305700E94840288EC90E00E948B0288EC90E058
S11305800E949202EFCF0E94D7020C947B030E9438
S1130590740358F00E946D0340F029F45F3F29F082
S11305A00C94640351110C94AF030C946A030E94DD
S11305B08C0368F39923B1F3552391F3951B550BE1
S11305C0BB27AA2762177307840738F09F5F5F4F22
S11305D0220F331F441FAA1FA9F335D00E2E3AF061
S11305E0E0E832D091505040E695001CCAF72BD079
S11305F0FE2F29D0660F771F881FBB1F26173707CA
S11306004807AB07B0E809F0BB0B802DBF01FF27FB
S113061093585F4F3AF09E3F510578F00C94640371
S11306200C94AF035F3FE4F3983ED4F3869577953B
S11306306795B795F7959F5FC9F7880F911D9695B4
S1130640879597F90895E1E0660F771F881FBB1F10
S1130650621773078407BA0720F0621B730B840BBD
S1130660BA0BEE1F88F7E09508950E94940388F072
S11306709F5798F0B92F9927B751B0F0E1F0660F62
S1130680771F881F991F1AF0BA95C9F714C0B130A3
S113069091F00E94AE03B1E008950C94AE03672F6D
S11306A0782F8827B85F39F0B93FCCF386957795D2
S11306B06795B395D9F73EF49095809570956195BB
S11306C07F4F8F4F9F4F089597F99F6780E870E0A1
S11306D060E008959FEF80EC089500240A941616B4
S11306E0170618060906089500240A94121613061C
S11306F0140605060895092E0394000C11F48823AA
S113070052F0BB0F40F4BF2B11F460FF04C06F5FC5
S11307107F4F8F4F9F4F089557FD9058440F551F9B
S113072059F05F3F71F04795880F97FB991F61F06F
S11307309F3F79F087950895121613061406551FE6
S1130740F2CF4695F1DF08C0161617061806991F52
S1130750F1CF86957105610508940895E894BB2747
S113076066277727CB0197F908950E94C8030C9454
S11307707B030E946D0338F00E94740320F09523DC
S113078011F00C9464030C946A0311240C94AF03C9
S11307900E948C0370F3959FC1F3950F50E0551F91
S11307A0629FF001729FBB27F00DB11D639FAA27C2
S11307B0F00DB11DAA1F649F6627B00DA11D661F11
S11307C0829F2227B00DA11D621F739FB00DA11D32
S11307D0621F839FA00D611D221F749F3327A00DEC
S11307E0611D231F849F600D211D822F762F6A2F88
S11307F011249F5750409AF0F1F088234AF0EE0FED
S1130800FF1FBB1F661F771F881F91505040A9F719
S11308109E3F510580F00C9464030C94AF035F3F3A
S1130820E4F3983ED4F3869577956795B795F79555
S1130830E7959F5FC1F7FE2B880F911D96958795CD
S113084097F9089597FB072E16F4009407D077FDC7
S113085009D00E94360407FC05D03EF4909581959A
S11308609F4F0895709561957F4F0895AA1BBB1BF8
S113087051E107C0AA1FBB1FA617B70710F0A61B9C
S1130880B70B881F991F5A95A9F780959095BC01BD
S10B0890CD010895F894FFCF97
S11308980000DC420000DC42FF03FF03FF03FF0308
S10508A8FF0348
S9030000FC
